:100000000C945D000C9485000C9485000C94850084
:100010000C9485000C9485000C9485000C9485004C
:100020000C9485000C9485000C9485000C9485003C
:100030000C9485000C944C030C9485000C94850062
:100040000C9473030C9485000C94E3030C94BD038F
:100050000C9485000C9485000C9485000C9485000C
:100060000C9485000C9485000000000024002700FB
:100070002A0000000000250028002B0004040404CE
:100080000404040402020202020203030303030342
:10009000010204081020408001020408102001021F
:1000A00004081020000000080002010000030407FB
:1000B0000000000000000000150411241FBECFEF57
:1000C000D8E0DEBFCDBF11E0A0E0B1E0E4E8FEE0A3
:1000D00002C005900D92A431B107D9F721E0A4E147
:1000E000B1E001C01D92AE3CB207E1F710E0CDE5F2
:1000F000D0E004C02197FE010E942A05CC35D1072B
:10010000C9F70E9464040C9440070C940000EAEACA
:10011000F0E02491E6E9F0E09491E2E8F0E0E49187
:10012000EE23C9F0222339F0233001F1A8F4213065
:1001300019F1223029F1F0E0EE0FFF1FEE58FF4FCA
:10014000A591B4912FB7F894EC91811126C09095A8
:100150009E239C932FBF08952730A9F02830C9F023
:10016000243049F7209180002F7D03C0209180002A
:100170002F7720938000DFCF24B52F7724BDDBCFEE
:1001800024B52F7DFBCF2091B0002F772093B000B6
:10019000D2CF2091B0002F7DF9CF9E2BDACFE6E9A8
:1001A000F0E02491E2E8F0E08491882399F090E077
:1001B000880F991FFC01E859FF4FA591B491FC01EC
:1001C000EE58FF4F859194918FB7F894EC91E22B04
:1001D000EC938FBF089508953FB7F894809119016B
:1001E00090911A01A0911B01B0911C0126B5A89B0A
:1001F00005C02F3F19F00196A11DB11D3FBFBA2FB9
:10020000A92F982F8827BC01CD01620F711D811D78
:10021000911D42E0660F771F881F991F4A95D1F7FD
:100220000895AF92BF92CF92DF92EF92FF920F9319
:100230001F93CF93DF936C017B018B01040F151F7C
:10024000EB015E01AE18BF08C017D10759F06991E4
:10025000D601ED91FC910190F081E02DC601099548
:10026000892B79F7C501DF91CF911F910F91FF90F5
:10027000EF90DF90CF90BF90AF900895FC01538D29
:10028000448D252F30E0842F90E0821B930B541770
:1002900010F0CF96089501970895FC01918D828DFD
:1002A000981761F0A28DAE0FBF2FB11D5D968C9196
:1002B000928D9F5F9F73928F90E008958FEF9FEFD5
:1002C0000895FC01918D828D981731F0828DE80F91
:1002D000F11D858D90E008958FEF9FEF0895FC014B
:1002E000918D228D892F90E0805C9F4F821B910918
:1002F0008F73992708958DE191E00E946F0121E0AD
:10030000892B09F420E0822F089580E090E0892B6A
:1003100029F00E947B0181110C9400000895FC01DA
:10032000A48DA80FB92FB11DA35ABF4F2C91848D56
:1003300090E001968F739927848FA689B7892C93B3
:10034000A089B1898C91837080648C93938D848D06
:10035000981306C00288F389E02D80818F7D808309
:100360000895EF92FF920F931F93CF93DF93EC01C9
:1003700081E0888F9B8D8C8D98131AC0E889F9894C
:10038000808185FF15C09FB7F894EE89FF8960834F
:10039000E889F98980818370806480839FBF81E0D0
:1003A00090E0DF91CF911F910F91FF90EF90089512
:1003B000F62E0B8D10E00F5F1F4F0F731127E02EED
:1003C0008C8D8E110CC00FB607FCFACFE889F98925
:1003D000808185FFF5CFCE010E948F01F1CFEB8D9B
:1003E000EC0FFD2FF11DE35AFF4FF0829FB7F894F9
:1003F0000B8FEA89FB8980818062CFCFCF93DF9317
:10040000EC01888D8823B9F0AA89BB89E889F9892C
:100410008C9185FD03C0808186FD0DC00FB607FC61
:10042000F7CF8C9185FFF2CF808185FFEDCFCE0194
:100430000E948F01E9CFDF91CF9108954F925F9293
:100440006F927F928F929F92AF92BF92CF92DF92E4
:10045000EF92FF920F931F93CF93DF9380E48093EB
:100460007C0080917A00806480937A0080917A0089
:1004700086FDFCCF8091780060917900762F682FFF
:10048000072E000C880B990B0E94470620E030ECE9
:100490004FE754E40E949D0520E030E04FE753E42D
:1004A0000E94D3060E94160690E080E00E94450656
:1004B0009B01AC016091CA017091CB018091CC018C
:1004C0009091CD010E9430050E940F06072E000C6E
:1004D000880B990B0E9447064B015C012091BA01E1
:1004E0003091BB014091BC015091BD010E94D306E7
:1004F0002B013C01C090BE01D090BF01E090C00133
:10050000F090C101A701960160E070E08FE793ECE5
:100510000E949D050E940F06EB012091C6013091BB
:10052000C7014091C8015091C901C501B4010E94A1
:10053000D3062091C2013091C3014091C401509172
:10054000C5010E9431050E940F064B016C177D0703
:100550007CF0A701960160E070E08FE793E40E94D1
:100560009D050E940F06EB01861697060CF4E40128
:10057000BE01DD0F880B990B0E9447069B01AC0161
:100580002093C2013093C3014093C4015093C5012D
:10059000C701B6010E94D306A30192010E94310552
:1005A0000E940F066B01EB0177FF15C00E94CF0080
:1005B00080E0DF91CF911F910F91FF90EF90DF903E
:1005C000CF90BF90AF909F908F907F906F905F90F3
:1005D0004F900C9487006F3F710529F024F00E9422
:1005E000CF0081E0E6CF0E94CF00209709F3CF3FF4
:1005F000D105B9F3EAEAF0E0E491E33099F140F48F
:10060000E130B1F0E23049F1C038D10554F7D0CF34
:10061000E73091F1E830C1F1E430B1F7809180002A
:10062000806280938000D0928B00C0928A0004C0C8
:1006300084B5806884BDC7BCDF91CF911F910F91B5
:10064000FF90EF90DF90CF90BF90AF909F908F90F2
:100650007F906F905F904F90089584B5806284BDC5
:10066000C8BCEACF80918000806880938000D092DF
:100670008900C0928800E0CF8091B00080688093AC
:10068000B000C092B300D8CF8091B0008062809358
:10069000B000C092B400D0CF1F920F920FB60F924D
:1006A00011242F933F934F935F936F937F938F9377
:1006B0009F93AF93BF93EF93FF93E0910001F0916D
:1006C00001010995FF91EF91BF91AF919F918F919A
:1006D0007F916F915F914F913F912F910F900FBE3E
:1006E0000F901F9018951F920F920FB60F92112422
:1006F0002F933F938F939F93AF93BF938091150157
:1007000090911601A0911701B09118013091140138
:1007100023E0230F2D3758F50196A11DB11D20931D
:1007200014018093150190931601A0931701B093C3
:1007300018018091190190911A01A0911B01B091AB
:100740001C010196A11DB11D8093190190931A01FE
:10075000A0931B01B0931C01BF91AF919F918F910A
:100760003F912F910F900FBE0F901F90189526E884
:10077000230F0296A11DB11DD2CF1F920F920FB66B
:100780000F9211242F933F934F935F936F937F9317
:100790008F939F93AF93BF93EF93FF938DE191E07E
:1007A0000E948F01FF91EF91BF91AF919F918F9127
:1007B0007F916F915F914F913F912F910F900FBE5D
:1007C0000F901F9018951F920F920FB60F92112441
:1007D0002F938F939F93EF93FF93E0912D01F091CF
:1007E0002E018081E0913301F091340182FD1BC024
:1007F0009081809136018F5F8F732091370182172E
:1008000041F0E0913601F0E0E35EFE4F958F80937A
:100810003601FF91EF919F918F912F910F900FBE15
:100820000F901F9018958081F4CFEDE1F1E01382D5
:10083000128288EE93E0A0E0B0E084839583A683E3
:10084000B78386E091E09183808385EC90E0958783
:10085000848784EC90E09787868780EC90E0918B8A
:10086000808B81EC90E0938B828B82EC90E0958B77
:10087000848B86EC90E0978B868B118E128E138E74
:10088000148EEAEBF1E08AE097EDA3E2BCE380830B
:100890009183A283B3838DEC9CECACE4BEE38483B0
:1008A0009583A683B7838DEC9CECACECBDE3848789
:1008B0009587A687B78780E090E0AAE2B3E4808BB3
:1008C000918BA28BB38B0895789484B5826084BD9C
:1008D00084B5816084BD85B5826085BD85B5816044
:1008E00085BD80916E00816080936E0010928100C2
:1008F000809181008260809381008091810081607D
:10090000809381008091800081608093800080913D
:10091000B10084608093B1008091B00081608093C9
:10092000B00080917A00846080937A0080917A0090
:10093000826080937A0080917A00816080937A004F
:1009400080917A00806880937A001092C100E091D3
:100950002D01F0912E0182E08083E0912901F09138
:100960002A011082E0912B01F0912C018FEC808301
:1009700010923501E0913101F091320186E08083DF
:10098000E0912F01F0913001808180618083E091BE
:100990002F01F0913001808188608083E0912F01E8
:1009A000F0913001808180688083E0912F01F09187
:1009B000300180818F7D808380E18093810010925F
:1009C000800084ED90E3909387008093860083E11C
:1009D000809381008EE192E0909301018093000169
:1009E00081E080936F000E94CF000E94CF0080E0E2
:1009F0000E948700C0E0D0E00E94EC004B015C0147
:100A000088EEC82E83E0D82EE12CF12C0E94EC0059
:100A1000681979098A099B09683E73408105910527
:100A2000A8F321E0C21AD108E108F10888EE880E87
:100A300083E0981EA11CB11CC114D104E104F1048F
:100A400029F72097C9F20E947B018823A9F20E940E
:100A50000000D2CFEE0FFF1F0590F491E02D099416
:100A60005058BB27AA270E9448050C9499060E945B
:100A70008B0638F00E94920620F039F49F3F19F45B
:100A800026F40C9488060EF4E095E7FB0C9482069D
:100A9000E92F0E94AA0658F3BA1762077307840762
:100AA000950720F079F4A6F50C94CC060EF4E095A9
:100AB0000B2EBA2FA02D0B01B90190010C01CA0118
:100AC000A0011124FF27591B99F0593F50F4503EC3
:100AD00068F11A16F040A22F232F342F4427585FB5
:100AE000F3CF469537952795A795F0405395C9F7CD
:100AF0007EF41F16BA0B620B730B840BBAF0915085
:100B0000A1F0FF0FBB1F661F771F881FC2F70EC023
:100B1000BA0F621F731F841F48F4879577956795F6
:100B2000B795F7959E3F08F0B0CF9395880F08F0E2
:100B30009927EE0F9795879508950E94B1050C941B
:100B400099060E94920658F00E948B0640F029F404
:100B50005F3F29F00C94820651110C94CD060C9441
:100B600088060E94AA0668F39923B1F3552391F3EE
:100B7000951B550BBB27AA2762177307840738F00C
:100B80009F5F5F4F220F331F441FAA1FA9F335D069
:100B90000E2E3AF0E0E832D091505040E695001C1D
:100BA000CAF72BD0FE2F29D0660F771F881FBB1FD7
:100BB000261737074807AB07B0E809F0BB0B802DB5
:100BC000BF01FF2793585F4F3AF09E3F510578F0E1
:100BD0000C9482060C94CD065F3FE4F3983ED4F368
:100BE000869577956795B795F7959F5FC9F7880FB5
:100BF000911D9695879597F90895E1E0660F771F07
:100C0000881FBB1F621773078407BA0720F0621B97
:100C1000730B840BBA0BEE1F88F7E09508950E94C2
:100C200016066894B1110C94CD0608950E94B20680
:100C300088F09F5798F0B92F9927B751B0F0E1F09D
:100C4000660F771F881F991F1AF0BA95C9F714C04D
:100C5000B13091F00E94CC06B1E008950C94CC061E
:100C6000672F782F8827B85F39F0B93FCCF3869586
:100C700077956795B395D9F73EF4909580957095E3
:100C800061957F4F8F4F9F4F0895E89409C097FB60
:100C90003EF490958095709561957F4F8F4F9F4F53
:100CA0009923A9F0F92F96E9BB279395F695879597
:100CB00077956795B795F111F8CFFAF4BB0F11F45A
:100CC00060FF1BC06F5F7F4F8F4F9F4F16C0882301
:100CD00011F096E911C0772321F09EE8872F762F37
:100CE00005C0662371F096E8862F70E060E02AF078
:100CF0009A95660F771F881FDAF7880F9695879564
:100D000097F9089597F99F6780E870E060E008958B
:100D10009FEF80EC089500240A9416161706180613
:100D20000906089500240A941216130614060506EF
:100D30000895092E0394000C11F4882352F0BB0F80
:100D400040F4BF2B11F460FF04C06F5F7F4F8F4FE3
:100D50009F4F089557FD9058440F551F59F05F3F1E
:100D600071F04795880F97FB991F61F09F3F79F0CD
:100D700087950895121613061406551FF2CF46954F
:100D8000F1DF08C0161617061806991FF1CF8695D1
:100D90007105610508940895E894BB2766277727B5
:100DA000CB0197F908950E94E6060C9499060E94DB
:100DB0008B0638F00E94920620F0952311F00C94D7
:100DC00082060C94880611240C94CD060E94AA0673
:100DD00070F3959FC1F3950F50E0551F629FF0018E
:100DE000729FBB27F00DB11D639FAA27F00DB11DA7
:100DF000AA1F649F6627B00DA11D661F829F222730
:100E0000B00DA11D621F739FB00DA11D621F839FB6
:100E1000A00D611D221F749F3327A00D611D231F8C
:100E2000849F600D211D822F762F6A2F11249F57DA
:100E300050409AF0F1F088234AF0EE0FFF1FBB1FDD
:100E4000661F771F881F91505040A9F79E3F51059C
:100E500080F00C9482060C94CD065F3FE4F3983E3C
:100E6000D4F3869577956795B795F795E7959F5F46
:100E7000C1F7FE2B880F911D9695879597F90895D8
:040E8000F894FFCF14
:100E8400EB0000000000B10111013E01FE016F0101
:040E94004D016101AA
:00000001FF
